:040000000BEF00F012
:100008002682FACF01F0FBCF02F0FFED00F0FCEF03
:1000180001F0000ED36E0F0EC16EC70E936E000E68
:10002800956E6CEC01F026EC02F0000E1B6E0A0EC9
:100038001C6E000E3DEC02F0000E1B6E4D0E1C6E89
:10004800040E3DEC02F0000E1B6E790E1C6E050EC0
:100058003DEC02F0000E1B6E430E1C6E070E3DECCD
:1000680002F0000E1B6E6C0E1C6E080E3DEC02F0CA
:10007800000E1B6E6F0E1C6E090E3DEC02F0000E9A
:100088001B6E630E1C6E0A0E3DEC02F0000E1B6E1A
:100098006B0E1C6E0B0E3DEC02F0000E1B6E0A0E72
:1000A8001C6E0F0E3DEC02F0010E1B6E0A0E1C6E4C
:1000B800000E3DEC02F0010E1B6E000E126E3C0E9F
:1000C800116E22C00FF023C010F0C0EC01F00FC079
:1000D80014F010C015F0000E176E0A0E166E97EC8D
:1000E80001F01450300F1C6E040E3DEC02F0010EAE
:1000F8001B6E22C00FF023C010F0000E126E0A0E05
:10010800116EC0EC01F00F50300F1C6E050E3DEC67
:1001180002F0010E1B6E3A0E1C6E060E3DEC02F04C
:10012800010E1B6E000E126E3C0E116E20C00FF0F9
:1001380021C010F0C0EC01F00FC014F010C015F091
:10014800000E176E0A0E166E97EC01F01450300F61
:100158001C6E070E3DEC02F0010E1B6E20C00FF066
:1001680021C010F0000E126E0A0E116EC0EC01F0E4
:100178000F50300F1C6E080E3DEC02F0010E1B6E86
:100188003A0E1C6E090E3DEC02F0010E1B6E000EBD
:10019800126E3C0E116E1EC00FF01FC010F0C0ECA6
:1001A80001F00FC014F010C015F0000E176E0A0E03
:1001B800166E97EC01F01450300F1C6E0A0E3DECD1
:1001C80002F0010E1B6E1EC00FF01FC010F0000ED3
:1001D800126E0A0E116EC0EC01F00F50300F1C6E3B
:1001E8000B0E3DEC02F0010E1B6E0A0E1C6E0F0E7C
:1001F8003DEC02F01AD70600E9CF03F0EACF04F08D
:10020800E1CF05F0E2CF06F0D9CF07F0DACF08F05A
:10021800F3CF09F0F4CF0AF0F6CF0BF0F7CF0CF0DC
:10022800F8CF0DF0F5CF0EF09EA034D0CF68130EA6
:10023800CE6E9E90244A252AA10E245C0F0E2558C6
:10024800D8A028D0000E256E000E246E1E4A1F2A44
:100258001F5004E13C0E1E5CD8A01CD0000E1F6E7F
:10026800000E1E6E204A212A215004E13C0E205C1B
:10027800D8A010D0000E216E000E206E224A232A2C
:10028800235004E1180E225CD8A004D0000E236E7F
:10029800000E226E0EC0F5FF0DC0F8FF0CC0F7FF70
:1002A8000BC0F6FF0AC0F4FF09C0F3FF08C0DAFF6D
:1002B80007C0D9FF06C0E2FF05C0E1FF04C0EAFF9E
:1002C80003C0E9FF02C0FBFF01C0FAFF269211003C
:1002D800000E106E960E0F6EE1EC01F0380E47EC32
:1002E80002F0000E106E320E0F6EE1EC01F0380EC7
:1002F80047EC02F0000E106E320E0F6EE1EC01F0CA
:10030800380E47EC02F0380E59EC02F0080E59ECA2
:1003180002F0010E59EC02F0060E59EC02F00C0E38
:1003280059EC02F01200000E196E000E186E1650ED
:100338001710D8B41CD0010E1A6E04D0D8901636F7
:1003480017361A2A17AEFAD7D89018361936165013
:10035800145C17501558D8A005D01650145E1750C5
:10036800155A1880D890173216321A2EEDD718C0A1
:1003780014F019C015F0120011501210D8B418D08A
:10038800010E136E04D0D89011361236132A12AE0D
:10039800FAD711500F5C12501058D8A004D0115041
:1003A8000F5E1250105AD89012321132132EF1D714
:1003B8000FC00FF010C010F01200000E126E000EE9
:1003C800116E0FD0000E146E000E136E145007E15C
:1003D8000A0E135CD8B003D0134A142AF7D7114A6F
:1003E800122A0F50115C10501258D8B01200EAD7D8
:1003F800256A246AC00EF66E040EF76E000EF86EBB
:1004080000EE1EF010EE06F00900F5CFEEFFE55005
:10041800E150FAE12690269200010DEF00F0126EED
:100428000F0E1216010E11161150D8A405D0125035
:10043800800959EC02F012001250400F800959EC63
:1004480002F01200010ECD6E9E909D80CF68130EB3
:10045800CE6E000E9E6EF28CF28E12000F6E50EC75
:1004680002F0818A81980FC083FF818600F081960F
:1004780012001D6E1BC011F01D5013EC02F01C5031
:1004880032EC02F012000F6E819A81980FC083FF40
:10049800818600F081961200958E819A81888186E6
:1004A80083BEFED78196959E1200106E50EC02F026
:0E04B800105047EC02F012003B003B00170012
:020000040020DA
:08000000FFFFFFFFFFFFFFFF00
:020000040030CA
:0E000000000C0D1EFF8181FF0FC00FE00F40AE
:00000001FF
