:040000008BEF1EF074
:103D1600000115EF1FF0026E95EC1EF002509EECAE
:103D26001EF01200958E819A8188818683BEFED709
:103D36008196959E1200016E819A819801C083FF3B
:103D4600818600F081961200076E05C003F00750C9
:103D5600BCEC1EF00650B1EC1EF01200016E95ECA4
:103D66001EF0818A819801C083FF818600F08196CA
:103D76001200046E0F0E0416010E03160350D8A48B
:103D860005D0045080098EEC1EF012000450400F3E
:103D960080098EEC1EF01200000E046E000E036EFB
:103DA6000FD0000E066E000E056E065007E10A0ED5
:103DB600055CD8B003D0054A062AF7D7034A042A79
:103DC6000150035C02500458D8B01200EAD7000E26
:103DD600026E960E016ECFEC1EF0380E9EEC1EF0B3
:103DE600000E026E320E016ECFEC1EF0380E9EEC07
:103DF6001EF0000E026E320E016ECFEC1EF0380E73
:103E06009EEC1EF0380E8EEC1EF0080E8EEC1EF0A8
:103E1600010E8EEC1EF0060E8EEC1EF00C0E8EECD5
:103E26001EF01200000ED36E0F0EC16EC70E936EFB
:103E3600000E956EEAEC1EF0000E056E410E066E43
:103E4600000EA7EC1EF0000E056E420E066E010E69
:103E5600A7EC1EF0000E056E430E066E020EA7ECD2
:103E66001EF0000E056E440E066E030EA7EC1EF045
:103E7600000E056E450E066E040EA7EC1EF0000E33
:103E8600056E460E066E050EA7EC1EF0000E056EBC
:103E9600470E066E060EA7EC1EF0000E056E480EC7
:103EA600066E070EA7EC1EF0000E056E490E066E96
:103EB600080EA7EC1EF0000E056E4A0E066E090EE1
:103EC600A7EC1EF0000E056E4B0E066E0A0EA7EC52
:103ED6001EF0000E056E4C0E066E0B0EA7EC1EF0C5
:103EE600000E056E4D0E066E0C0EA7EC1EF0000EB3
:103EF600056E4E0E066E0D0EA7EC1EF0000E056E3C
:103F06004F0E066E0E0EA7EC1EF0000E056E500E3E
:103F1600066E0F0EA7EC1EF0010E056E610E066E04
:103F2600000EA7EC1EF0010E056E620E066E010E67
:103F3600A7EC1EF0010E056E630E066E020EA7ECD0
:103F46001EF0010E056E640E066E030EA7EC1EF043
:103F5600010E056E650E066E040EA7EC1EF0010E30
:103F6600056E660E066E050EA7EC1EF0010E056EBA
:103F7600670E066E060EA7EC1EF0010E056E680EA5
:103F8600066E070EA7EC1EF0010E056E690E066E94
:103F9600080EA7EC1EF0010E056E6A0E066E090EDF
:103FA600A7EC1EF0010E056E6B0E066E0A0EA7EC50
:103FB6001EF0010E056E6C0E066E0B0EA7EC1EF0C3
:103FC600010E056E6D0E066E0C0EA7EC1EF0010EB0
:103FD600056E6E0E066E0D0EA7EC1EF0010E056E3A
:103FE6006F0E066E0E0EA7EC1EF0010E056E700E1D
:0A3FF600066E0F0EA7EC1EF0FFD7B9
:020000040020DA
:08000000FFFFFFFFFFFFFFFF00
:020000040030CA
:0E000000000C0D1EFF8081FF034003600340D3
:00000001FF
