:040000000BEF00F012
:100008004182FACF09F0FBCF0AF0FEED04F0E9EFE8
:0200180005F0F1
:10080000003F065B4F666D7D077F6F00D59CD59AD4
:10081000D598D596D550F80B0309D56E3CC023F07A
:100820003DC024F0000E24BEFF0E256E266E231E52
:10083000241E251E261E232A000E242225222622BF
:10084000000E2324276E000E2420286E010E252082
:10085000296E000E26202A6E28C027F029C028F015
:100860002AC029F02A6A29BE2A682750D76E3C5030
:100870000008D66ED58EF294F28AF28CF28E0A0EB1
:10088000C16E93909392939493969398000E956E65
:10089000968096829684000E2C6E000E2B6E000EB3
:1008A0002E6E000E2D6E000E306E000E2F6E2FC0BD
:1008B0001EF030C01FF0000E216E0A0E206EC8EC34
:1008C00005F0010E1E24F66E080E1F20F76E0800BC
:1008D000F5CF31F0000E1A6E0A0E196E2FC017F008
:1008E00030C018F09FEC05F017C01EF018C01FF0C4
:1008F000000E216E0A0E206EC8EC05F0010E1E24BB
:10090000F66E080E1F20F76E0800F5CF32F0000ECD
:100910001A6E640E196E2FC017F030C018F09FECDD
:1009200005F017C01EF018C01FF0000E216E0A0E51
:10093000206EC8EC05F0010E1E24F66E080E1F2076
:10094000F76E0800F5CF33F084CF23F0070E23169F
:1009500023503E6E3F6A3EC017F03FC018F0000EB5
:100960001A6E0A0E196E67EC05F0010E1724F66E6A
:10097000080E1820F76E0800F5CF34F08150F00B08
:10098000406E836840500F09816E2D4A2E2A2E50EA
:1009900004E1040E2D5CD8A004D0000E2E6E000ED3
:1009A0002D6E380E2D24D96E000E2E20DA6EDF50FB
:1009B000FF0A4010406E40C081FF310E2D24D96ED9
:1009C000000E2E20DA6EDF50FF0A836E3550D8B449
:1009D0006ED7000E356E010E366E2B4A2C2A2C5027
:1009E00004E10B0E2B5CD8A062D7000E2C6E000E1B
:1009F0002B6E010E366E2F4A302A59D70600E9CFEA
:100A00000BF0EACF0CF0E1CF0DF0E2CF0EF0D9CF32
:100A10000FF0DACF10F0F3CF11F0F4CF12F0F6CFE1
:100A200013F0F7CF14F0F8CF15F0F5CF16F0F2BAB7
:100A3000F2A42FD03CC001F03DC002F0000E02BE77
:100A4000FF0E036E046E011E021E031E041E012A09
:100A5000000E022203220422000E0124056E000E65
:100A60000220066E010E0320076E000E0420086EA1
:100A700006C005F007C006F008C007F0086A07BE08
:100A800008680550D76E3C500008D66EF294010EEF
:100A9000356E16C0F5FF15C0F8FF14C0F7FF13C080
:100AA000F6FF12C0F4FF11C0F3FF10C0DAFF0FC051
:100AB000D9FF0EC0E2FF0DC0E1FF0CC0EAFF0BC082
:100AC000E9FF0AC0FBFF09C0FAFF41921100000EC6
:100AD0001C6E18AE06D0176C181ED8B0182A010E5E
:100AE0001C6E1AAE04D0196C1A1ED8B01A2A1950EE
:100AF0001A10D8B418D0010E1B6E04D0D890193635
:100B00001A361B2A1AAEFAD71950175C1A50185801
:100B1000D8A004D01950175E1A50185AD8901A321B
:100B200019321B2EF1D71C50D8B404D0176C181EE4
:100B3000D8B0182A17C017F018C018F01200000E0D
:100B40001C6E000E1B6E19501A10D8B41CD0010E6A
:100B50001D6E04D0D89019361A361D2A1AAEFAD74F
:100B6000D8901B361C361950175C1A501858D8A04C
:100B700005D01950175E1A50185A1B80D8901A3297
:100B800019321D2EEDD71BC017F01CC018F0120033
:100B900020502110D8B418D0010E226E04D0D89065
:100BA00020362136222A21AEFAD720501E5C215051
:100BB0001F58D8A004D020501E5E21501F5AD89034
:100BC00021322032222EF1D71EC01EF01FC01FF08E
:100BD000120000EE31F0070EEE6AE806FDE1100E9D
:100BE000F66E0C0EF76E000EF86E00EE38F010EE9A
:100BF00006F00900F5CFEEFFE550E150FAE1419033
:100C00004192000EF86E080EF76E000106EF04F038
:060C100001020408F500DA
:020000040020DA
:08000000FFFFFFFFFFFFFFFF00
:020000040030CA
:0E000000000C0D1EFF8181FF0FC00FE00F40AE
:00000001FF
