:0400000077EF3FF067
:107EEE00016A026A00017CEF3FF0000ED36E0F0EA6
:107EFE00C16EFE0E946EF00E936E9EEC3FF0036E0E
:107F0E000350D8A408D0022AC80E0264F6D7000E79
:107F1E00026E0180F2D701A0F0D701900304D8A41D
:107F2E00ECD782B002D08280E8D78290E6D78190DB
:107F3E0081828184818600F000F000F000F081B82B
:107F4E0002D0010E120081BA02D0020E120081BCC4
:107F5E0002D0030E120081BE02D0040E12008180E8
:107F6E0081928184818600F000F000F000F081B8EB
:107F7E0002D0050E120081BA02D0060E120081BC8C
:107F8E0002D0070E120081BE02D0080E12008180B0
:107F9E0081828194818600F000F000F000F081B8BB
:107FAE0002D0090E120081BA02D00A0E120081BC54
:107FBE0002D00B0E120081BE02D00C0E1200818078
:107FCE0081828184819600F000F000F000F081B88B
:107FDE0002D00D0E120081BA02D00E0E120081BC1C
:107FEE0002D00F0E120081BE02D0100E1200000E33
:027FFE0012006F
:020000040020DA
:08000000FFFFFFFFFFFFFFFF00
:020000040030CA
:0E000000000C0D1EFF8181FF0FC00FE00F40AE
:00000001FF
