:040000000BEF00F012
:100008004782FACF09F0FBCF0AF0B3ED05F066EFAF
:0200180006F0F0
:10080000003F065B4F666D7D077F6F777C395E79B1
:10081000713D740105090D02060A0E03070B0F0452
:10082000080C100102040800D59CD59AD598D596DD
:10083000D550F80B0309D56E45C023F046C024F00F
:10084000000E24BEFF0E256E266E231E241E251EBE
:10085000261E232A000E242225222622000E2324CF
:10086000276E000E2420286E010E2520296E000E12
:1008700026202A6E28C027F029C028F02AC029F097
:100880002A6A29BE2A682750D76E45500008D66EBE
:10089000D58EF294F28AF28CF28E0A0EC16E93908B
:1008A0009392939493969388938A938C938E949C2B
:1008B000949E000E956E968096829684000E306E01
:1008C000000E2F6E000E326E000E316E000E346E72
:1008D000000E336E4250D8B47FD0000E426E8C684A
:1008E0003F500F098A6E000E2C6E000E2B6E000E0C
:1008F000386E000E376E385067E1040E375CD8B0A2
:1009000063D0230E3724F66E080E3820F76E0800E9
:10091000F550FF0A8A6E230E3724F66E080E382033
:10092000F76E0800F550FF0A8A6E8150FF0A236EA9
:10093000F00E23162350356E366A35503610D8B473
:1009400040D0100E35183610D8A404D0000E2E6EEC
:10095000000E2D6E200E35183610D8A404D0000ECF
:100960002E6E010E2D6E400E35183610D8A404D010
:10097000000E2E6E020E2D6E800E35183610D8A485
:1009800004D0000E2E6E030E2D6E37C023F038C03B
:1009900024F0D89023362436D890233624362D5090
:1009A00023262E502422130E2324F66E080E242014
:1009B000F76E0800F5503D6E3E6A000E2C6E010E7B
:1009C0002B6E374A382A97D72B502C10D8A404D036
:1009D000000E3E6E110E3D6E4350D8B404D0000E92
:1009E000436E334A342A33C01EF034C01FF0000E69
:1009F000216E0A0E206E45EC06F0010E1E24F66EE6
:100A0000080E1F20F76E0800F5CF39F0000E1A6EA1
:100A10000A0E196E33C017F034C018F01CEC06F043
:100A200017C01EF018C01FF0000E216E0A0E206EB7
:100A300045EC06F0010E1E24F66E080E1F20F76E20
:100A40000800F5CF3AF0000E1A6E640E196E33C02E
:100A500017F034C018F01CEC06F017C01EF018C0D8
:100A60001FF0000E216E0A0E206E45EC06F0010EFE
:100A70001E24F66E080E1F20F76E0800F5CF3BF01F
:100A8000030E1A6EE80E196E33C017F034C018F05A
:100A90001CEC06F017C01EF018C01FF0000E216EEF
:100AA0000A0E206E45EC06F0010E1E24F66E080EAE
:100AB0001F20F76E0800F5CF3CF0010E3D24F66EC6
:100AC000080E3E20F76E0800F5CF3CF04050D8B439
:100AD00001D7000E406E2F4A302A2FC01EF030C0C2
:100AE0001FF0000E216E0A0E206E45EC06F01E501F
:100AF0001F10D8A402D0010E426EF40E2F5C010E1E
:100B00003058D8A006D0000E306E000E2F6E010EA9
:100B1000436E8C688150F00B3F6E3F500F098A6E18
:100B2000230E3124F66E080E3220F76E0800F550C1
:100B3000FF0A3F103F6E3FC08AFF390E3124D96E45
:100B4000000E3220DA6EDF50FF0A8C6E314A322AF4
:100B5000325004E1040E315CD8A0BCD6000E326ED7
:100B6000000E316EB7D60600E9CF0BF0EACF0CF0DD
:100B7000E1CF0DF0E2CF0EF0D9CF0FF0DACF10F0C9
:100B8000F3CF11F0F4CF12F0F6CF13F0F7CF14F04B
:100B9000F8CF15F0F5CF16F0F2BAF2A42FD0F294F8
:100BA00045C001F046C002F0000E02BEFF0E036E0B
:100BB000046E011E021E031E041E012A000E0222E4
:100BC00003220422000E0124056E000E0220066E90
:100BD000010E0320076E000E0420086E06C005F00B
:100BE00007C006F008C007F0086A07BE086805508D
:100BF000D76E45500008D66E010E406E16C0F5FF48
:100C000015C0F8FF14C0F7FF13C0F6FF12C0F4FFC1
:100C100011C0F3FF10C0DAFF0FC0D9FF0EC0E2FF12
:100C20000DC0E1FF0CC0EAFF0BC0E9FF0AC0FBFFEB
:100C300009C0FAFF47921100000E1C6E000E1B6ED9
:100C400019501A10D8B41CD0010E1D6E04D0D890C3
:100C500019361A361D2A1AAEFAD7D8901B361C360A
:100C60001950175C1A501858D8A005D01950175EA3
:100C70001A50185A1B80D8901A3219321D2EEDD7EF
:100C80001BC017F01CC018F0120020502110D8B45F
:100C900018D0010E226E04D0D89020362136222A98
:100CA00021AEFAD720501E5C21501F58D8A004D086
:100CB00020501E5E21501F5AD89021322032222E01
:100CC000F1D71EC01EF01FC01FF0120000EE39F059
:100CD0000C0EEE6AE806FDE1020EF66E0D0EF76EE2
:100CE000000EF86E0900F5CF45F00900F5CF46F08B
:100CF00047904792000EF86E080EF76E000114EF51
:040D000004F0F50006
:020000040020DA
:08000000FFFFFFFFFFFFFFFF00
:020000040030CA
:0E000000000C0D1EFF8181FF0FC00FE00F40AE
:00000001FF
