:0400000079EF04F0A0
:10080000000102040810204080C0E0F0F8FCFEFF68
:10081000FEFCF8F0E0C080804020100804020102D5
:100820000408102040804020100804020103060C38
:10083000183060C00001051555575F7FFF00AA55AD
:100840000000026E8094000E036E070E036401D058
:100850000ED002AE02D0808A01D0809A02500224CB
:10086000026E8096040004008086032AEED7000EF4
:10087000036E070E036401D00ED001AE02D0808A51
:1008800001D0809A01500124016E8096040004007A
:100890008086032AEED7808400F000F08094120056
:1008A000000ED36E0F0EC16E000E926E000E016E22
:1008B000000E21EC04F0044A052A110E045C270EF8
:1008C0000558D8A0F8D7000E056E000E046E062A53
:1008D0003F0E0616000E016E0650010D010EF324A8
:1008E000F66E080EF420F76E0800F55021EC04F0C7
:1008F000E2D7000EF86E080EF76E000150EF04F01C
:020000040020DA
:08000000FFFFFFFFFFFFFFFF00
:020000040030CA
:0E000000000C0D1EFF8181FF0FC00FE00F40AE
:00000001FF
