:040000000BEF00F012
:100008003482FACF01F0FBCF02F015ED05F0A0EF36
:0200180005F0F1
:10080000003F065B4F666D7D077F6FBF86DBCFE6DF
:10081000EDFD87FFEF00D59CD59AD598D596D5806C
:10082000D582D584FC0ED76EEC0ED66ED58EF294A2
:10083000F28AF28CF28E8A8093908A9293928A84C2
:1008400093948A969396000E8C6E000E956E000E11
:100850001E6E000E1D6E000E206E000E1F6E000E2E
:10086000226E000E216E000E246E000E236ED8D074
:1008700023C016F024C017F0000E196E0A0E186E71
:100880007FEC05F0010E1624F66E080E1720F76EA9
:100890000800F5CF27F0000E126E0A0E116E23C06D
:1008A0000FF024C010F056EC05F00FC016F010C089
:1008B00017F0000E196E0A0E186E7FEC05F0010E8F
:1008C0001624F66E080E1720F76E0800F5CF28F0F4
:1008D000000E126E0A0E116E25C00FF026C010F029
:1008E00056EC05F00FC016F010C017F0000E196E90
:1008F0000A0E186E7FEC05F0010E1624F66E080E37
:100900001720F76E0800F5CF2AF02E50D8B40FD07C
:1009100025C016F026C017F0000E196E0A0E186ECC
:100920007FEC05F00A0E1626000E17220AD025C00D
:1009300016F026C017F0000E196E0A0E186E7FEC26
:1009400005F0010E1624F66E080E1720F76E08004B
:10095000F5CF29F08150F00B2B6E83682B500F09D7
:10096000816E214A222A225004E1040E215CD8A083
:1009700004D0000E226E000E216E300E2124D96E9E
:10098000000E2220DA6EDF50FF0A2B102B6E2BC0D8
:1009900081FF270E2124D96E000E2220DA6EDF504F
:1009A000FF0A836E2C50D8B463D7000E2C6E010E54
:1009B0002D6E1F4A202A205004E10F0E1F5CD8A084
:1009C00005D0000E206E000E1F6E2E1E1D4A1E2A20
:1009D0001E5004E11E0E1D5CD8A04AD7000E1E6EEC
:1009E000000E1D6E010E2D6E23501B6E24501C6ECA
:1009F000234A242A1C5004E13B0E1B5CD8A038D7A4
:100A0000000E246E000E236E25501B6E26501C6EA9
:100A1000254A262A1C5004E13B0E1B5CD8A028D78F
:100A2000000E266E000E256E23D70600E9CF03F0D8
:100A3000EACF04F0E1CF05F0E2CF06F0D9CF07F01E
:100A4000DACF08F0F3CF09F0F4CF0AF0F6CF0BF0CD
:100A5000F7CF0CF0F8CF0DF0F5CF0EF0F2BAF2A40C
:100A600007D0FD0ED76EF70ED66EF294010E2C6EE7
:100A70000EC0F5FF0DC0F8FF0CC0F7FF0BC0F6FF6E
:100A80000AC0F4FF09C0F3FF08C0DAFF07C0D9FFAE
:100A900006C0E2FF05C0E1FF04C0EAFF03C0E9FFB2
:100AA00002C0FBFF01C0FAFF34921100000E146E69
:100AB000000E136E11501210D8B41CD0010E156E1A
:100AC00004D0D89011361236152A12AEFAD7D89023
:100AD0001336143611500F5C12501058D8A005D0A0
:100AE00011500F5E1250105A1380D89012321132EA
:100AF000152EEDD713C00FF014C010F012001850CF
:100B00001910D8B418D0010E1A6E04D0D890183627
:100B100019361A2A19AEFAD71850165C19501758F8
:100B2000D8A004D01850165E1950175AD890193210
:100B300018321A2EF1D716C016F017C017F012008F
:100B400000EE27F0090EEE6AE806FDE17E0EF66E75
:100B50000B0EF76E000EF86E00EE30F010EE04F0A3
:100B60000900F5CFEEFFE550E150FAE13490349200
:100B7000000EF86E080EF76E00010BEF04F0010294
:020B8000040867
:020000040020DA
:08000000FFFFFFFFFFFFFFFF00
:020000040030CA
:0E000000000C0D1EFF8181FF0FC00FE00F40AE
:00000001FF
