:04000000FCEF04F01D
:10080000003F065B4F666D7D077F6F777C395E79B1
:100810007100000ED36E0F0EC16E000E956EF00EBD
:10082000936E9AEC04F0016E0104D8A403D0010E7B
:10083000F66E08D0020E0118D8A408D0020EF66E8B
:10084000080E73D00800F5CF83FFEBD7030E011815
:10085000D8A404D0030EF66E080E67D0040E01185B
:10086000D8A404D0040EF66E080E5FD0050E011851
:10087000D8A404D0050EF66E080E57D0060E011847
:10088000D8A404D0060EF66E080E4FD0070E01183D
:10089000D8A404D0070EF66E080E47D0080E011833
:1008A000D8A404D0080EF66E080E3FD0090E011829
:1008B000D8A404D0090EF66E080E37D00A0E01181F
:1008C000D8A404D00A0EF66E080E2FD00B0E011815
:1008D000D8A404D00B0EF66E080E27D00C0E01180B
:1008E000D8A404D00C0EF66E080E1FD00D0E011801
:1008F000D8A404D00D0EF66E080E17D00E0E0118F7
:10090000D8A404D00E0EF66E080E0FD00F0E0118EC
:10091000D8A404D00F0EF66E080E07D0100E0118E2
:10092000D8A405D0100EF66E080EF76E8BD7000E09
:10093000836E77D7819081828184818600F000F078
:1009400000F000F081B802D0010E120081BA02D08E
:10095000020E120081BC02D0030E120081BE02D032
:10096000040E1200818081928184818600F000F063
:1009700000F000F081B802D0050E120081BA02D05A
:10098000060E120081BC02D0070E120081BE02D0FA
:10099000080E1200818081828194818600F000F02F
:1009A00000F000F081B802D0090E120081BA02D026
:1009B0000A0E120081BC02D00B0E120081BE02D0C2
:1009C0000C0E1200818081828184819600F000F0FB
:1009D00000F000F081B802D00D0E120081BA02D0F2
:1009E0000E0E120081BC02D00F0E120081BE02D08A
:1009F000100E1200000E1200000EF86E080EF76EB8
:060A0000000109EF04F003
:020000040020DA
:08000000FFFFFFFFFFFFFFFF00
:020000040030CA
:0E000000000C0D1EFF8181FF0FC00FE00F40AE
:00000001FF
