:040000006EEF3EF071
:107CDC00000173EF3FF0026E78EC3EF0025081EC45
:107CEC003EF01200958E819A8188818683BEFED7E4
:107CFC008196959E1200016E819A819801C083FF36
:107D0C00818600F081961200116E0FC003F01150A5
:107D1C009FEC3EF0105094EC3EF01200016E78ECAB
:107D2C003EF0818A819801C083FF818600F08196A4
:107D3C001200046E0F0E0416010E03160350D8A485
:107D4C0005D00450800971EC3EF012000450400F35
:107D5C00800971EC3EF01200000E046E000E036EF2
:107D6C0010D0000E066E000E056E065008E10A0ECD
:107D7C00055CD8B004D00400054A062AF6D7034A9D
:107D8C00042A0150035C02500458D8B01200E9D701
:107D9C00000E026E960E016EB2EC3EF0380E81ECC7
:107DAC003EF0000E026E320E016EB2EC3EF0380E5A
:107DBC0081EC3EF0000E026E320E016EB2EC3EF023
:107DCC00380E81EC3EF0380E71EC3EF0080E71EC82
:107DDC003EF0010E71EC3EF0060E71EC3EF00C0E16
:107DEC0071EC3EF01200000E066E02AE06D0016C75
:107DFC00021ED8B0022A010E066E04AE04D0036C2B
:107E0C00041ED8B0042A03500410D8B418D0010EA4
:107E1C00056E04D0D89003360436052A04AEFAD782
:107E2C000350015C04500258D8A004D00350015EEA
:107E3C000450025AD89004320332052EF1D7065062
:107E4C00D8B404D0016C021ED8B0022A01C001F0D3
:107E5C0002C002F01200000E0C6E0AAE06D0096CC5
:107E6C000A1ED8B00A2A010E0C6E08AE06D0076C9A
:107E7C00081ED8B0082A010E0C1A000E0E6E000E49
:107E8C000D6E09500A10D8B41CD0010E0B6E04D024
:107E9C00D89009360A360B2A0AAEFAD7D8900D3686
:107EAC000E360950075C0A500858D8A005D0095066
:107EBC00075E0A50085A0D80D8900A3209320B2EF0
:107ECC00EDD70C50D8B404D00D6C0E1ED8B00E2AC1
:107EDC000DC007F00EC008F01200000ED36E0F0E8E
:107EEC00C16EC70E936E000E956ECEEC3EF0000E7A
:107EFC00146E124A132A510E125CC30E1358D8A0DA
:107F0C00F8D7000E136E000E126E142A000E0F6EB0
:107F1C0014C007F0086A270E0A6E100E096E31ECB9
:107F2C003FF00750300F106E000E8AEC3EF0000E42
:107F3C000F6E270E046E100E036E14C001F0026A51
:107F4C00F9EC3EF001C007F002C008F0030E0A6E17
:107F5C00E80E096E31EC3FF00750300F106E010E39
:107F6C008AEC3EF0000E0F6E030E046EE80E036EEC
:107F7C0014C001F0026AF9EC3EF001C007F002C037
:107F8C0008F0000E0A6E640E096E31EC3FF00750DB
:107F9C00300F106E020E8AEC3EF0000E0F6E000ECB
:107FAC00046E640E036E14C001F0026AF9EC3EF02C
:107FBC0001C007F002C008F0000E0A6E0A0E096E2E
:107FCC0031EC3FF00750300F106E030E8AEC3EF090
:107FDC00000E0F6E14C001F0026A000E046E0A0E41
:107FEC00036EF9EC3EF00150300F106E040E8AEC6B
:047FFC003EF07FD7FD
:020000040020DA
:08000000FFFFFFFFFFFFFFFF00
:020000040030CA
:0E000000000C0D1EFF8181FF0FC00FE00F40AE
:00000001FF
