:0400000084EF04F095
:100800000000FE020A8A8A8AFA8A8A8A0A02FE009E
:100810000000FF40484848484F48494E4840FF00C4
:100820000000012A1F0E016402D0000E016E000EAE
:10083000046E000E46EC04F0000E816E100E016096
:100840000CD00150010D010EF324F66E080EF420B9
:10085000F76E0800F5CF03F00BD00150010D010E2B
:10086000F324F66E080EF420F76E0800F5CF02F0C0
:1008700003C004F0025046EC04F00150070B811253
:1008800001A602D08186120081881200056E809434
:10089000000E066E070E066401D00ED005AE02D023
:1008A000808A01D0809A05500524056E8096040048
:1008B00004008086062AEED7000E066E070E066438
:1008C00001D00ED004AE02D0808A01D0809A0450AC
:1008D0000424046E8096040004008086062AEED765
:1008E000808400F000F080941200000ED36E0F0E92
:1008F000C16EE00E936E000E816E000E926E000EC1
:10090000806E11EC04F0FDD7036A026A016A000EE2
:0C091000F86E080EF76E000175EF04F0A1
:020000040020DA
:08000000FFFFFFFFFFFFFFFF00
:020000040030CA
:0E000000000C0D1EFF8181FF0FC00FE00F40AE
:00000001FF
