:040000000BEF00F012
:100008001A82FACF03F0FBCF04F00DED00F0D7EF22
:1000180000F00600E9CF05F0EACF06F0E1CF07F0DF
:10002800E2CF08F0D9CF09F0DACF0AF0F3CF0BF01E
:10003800F4CF0CF0F6CF0DF0F7CF0EF0F8CF0FF0AD
:10004800F5CF10F0F2A404D0130ED66EF294172A4E
:10005800A1A056D0A190F29E162A19B00FD02D0E4D
:10006800176409D03A0E176006D01980000E166E74
:10007800000E176E45D0F4EC00F042D0D890153041
:10008800156EB6EC00F0136E000E176E1304D8A4AC
:1000980002D0158E08D01350D8A402D0159E03D0D4
:1000A800F4EC00F02ED0080E1618D8A406D015507F
:1000B800D8B426D0F4EC00F024D0100E1618D8A42A
:1000C80006D01528D8B41CD0F4EC00F01AD0180EBD
:1000D8001618D8A403D015C014F012D0200E161884
:1000E800D8A40ED0000E166E1990155014C001F049
:1000F800026A0126000E022201280210D8B41880D4
:10010800F28E10C0F5FF0FC0F8FF0EC0F7FF0DC04C
:10011800F6FF0CC0F4FF0BC0F3FF0AC0DAFF09C0FA
:10012800D9FF08C0E2FF07C0E1FF06C0EAFF05C02B
:10013800E9FF04C0FBFF03C0FAFF1A92110018A0E0
:100148000FD08384114A122AE90E115C030E12584B
:10015800D8A01200000E126E000E116E1890120038
:1001680083941200030E176405D0060E176002D0A0
:10017800000E1200070E176405D00B0E176002D090
:10018800010E1200020E1200000ED36E0F0EC16E89
:100198009468FB0E956EECEC00F0E3EC00F0188030
:1001A800A3EC00F0FDD7196A00EE11F0070EEE6A15
:1001B800E806FDE11A901A920001C8EF00F0040E5B
:1001C800BA6E000ECD6E9482A190A080CD801200F0
:1001D800F294F28AC80ED56E130ED66EF28E120005
:1001E800000E166E000E176E1990000E156E120096
:020000040020DA
:08000000FFFFFFFFFFFFFFFF00
:020000040030CA
:0E000000000C0D1EFF8181FF0FC00FE00F40AE
:00000001FF
