:04000000ECEF3EF0F3
:107DD800000177EF3FF0026EF6EC3EF00250FFEC48
:107DE8003EF01200958E819A8188818683BEFED7E7
:107DF8008196959E1200016E819A819801C083FF39
:107E0800818600F081961200076E05C003F00750C6
:107E18001DEC3FF0065012EC3FF01200016EF6EC3C
:107E28003EF0818A819801C083FF818600F08196A7
:107E38001200046E0F0E0416010E03160350D8A488
:107E480005D004508009EFEC3EF012000450400FBA
:107E58008009EFEC3EF01200000E046E000E036E77
:107E680010D0000E066E000E056E065008E10A0ED0
:107E7800055CD8B004D00400054A062AF6D7034AA0
:107E8800042A0150035C02500458D8B01200E9D704
:107E9800000E026E960E016E30EC3FF0380EFFECCD
:107EA8003EF0000E026E320E016E30EC3FF0380EDE
:107EB800FFEC3EF0000E026E320E016E30EC3FF029
:107EC800380EFFEC3EF0380EEFEC3EF0080EEFEC0B
:107ED8003EF0010EEFEC3EF0060EEFEC3EF00C0E1D
:107EE800EFEC3EF01200000ED36E0F0EC16EC70EFF
:107EF800936E000E956E4CEC3FF0000E056E4B0E27
:107F0800066E040E08EC3FF0000E056E550E066E68
:107F1800050E08EC3FF0000E056E4F0E066E060EBD
:107F280008EC3FF0000E056E590E066E070E08ECC1
:107F38003FF0000E056E410E066E080E08EC3FF08D
:107F4800000E056E4F0E066E090E08EC3FF0000E8F
:107F5800056E4D0E066E0A0E08EC3FF0000E056E1B
:107F6800490E066E0B0E08EC3FF0000E056E4E0E25
:107F7800066E0C0E08EC3FF0000E056E470E066EFE
:107F88000D0E08EC3FF0010E056E320E066E010E66
:107F980008EC3FF0010E056E300E066E020E08EC7E
:107FA8003FF0010E056E310E066E030E08EC3FF031
:107FB800010E056E350E066E040E08EC3FF0010E3C
:107FC800056E300E066E050E08EC3FF0010E056ECC
:107FD800380E066E060E08EC3FF0010E056E320EE6
:107FE800066E070E08EC3FF0010E056E350E066EA4
:087FF800080E08EC3FF0FFD772
:020000040020DA
:08000000FFFFFFFFFFFFFFFF00
:020000040030CA
:0E000000000C0D1EFF8181FF0FC00FE00F40AE
:00000001FF
