:040000005BEF00F0C2
:0E0008004082FACF12F0FBCF13F024ED04F08B
:100018004080D8CF01F0E8CF02F0E0CF03F0FACF6C
:1000280004F0FBCF05F0E9CF06F0EACF07F0E1CF07
:1000380008F0E2CF09F0D9CF0AF0DACF0BF0F3CF0E
:100048000CF0F4CF0DF0F6CF0EF0F7CF0FF0F8CF9D
:1000580010F0F5CF11F09EB09DA005D0E10ECF6E47
:100068007C0ECE6E9E9011C0F5FF10C0F8FF0FC039
:10007800F7FF0EC0F6FF0DC0F4FF0CC0F3FF0BC076
:10008800DAFF0AC0D9FF09C0E2FF08C0E1FF07C0D4
:10009800EAFF06C0E9FF05C0FBFF04C0FAFF03C082
:1000A800E0FF02C0E8FF01C0D8FF4090100025EF34
:1000B80005F062C066F00001676B686B000161358E
:1000C8000001663701E36781000166510001696F2D
:1000D80000016951D8A40AD0000E0001606F000E1B
:1000E8000001616F000E0001626F120065C066F0CA
:1000F8000001676B686B000164350001663701E336
:1001080067810001665100016E6F00016E51D8A42D
:100118000AD0000E0001606F000E0001616F000E32
:100128000001626F120000016E517B0F0001692708
:1001380062C06EF00001655100016E1B800E000167
:100148006E170001618F0001648FFF0E00016317B5
:10015800FF0E00016417000E00016517000E000174
:100168006A6F000E00016B6F000E00016C6F070EC6
:1001780000016D6F000160A10CD000016351000106
:100188006A270001645100016B23000165510001D9
:100198006C230001D8906233613360330001D8903A
:1001A80063376437653700016D2FE4D7090E000106
:1001B8006D6F000160A10CD00001635100016A2736
:1001C8000001645100016B230001655100016C239B
:1001D8000001D8906233613360330001D8906C33EA
:1001E8006B336A3300016D2FE4D76AC020F06BC00F
:1001F80021F06CC022F069C023F06EC024F02FEC0F
:1002080003F020C060F021C061F022C062F012004B
:10021800000E0001816F000E806F8B9294928B9478
:100228009494CA96CA98CA9ACA9CCA50FC0B0209E6
:10023800CA6ECA84FA0ECB6ED59CD59AD598D59637
:10024800D580D582D584C20ED76EF70ED66ED58EE0
:10025800F294F28AF28CF28E000E0001876F000E83
:10026800866F000E0001896F000E886F000E000176
:10027800836F010E826F000E0001856F0A0E846F76
:10028800880E2E6E130E2F6E000E306E000E316E1D
:100298009BEC04F0880E2E6E130E2F6E000E306E3F
:1002A800000E316E66EC04F09568000E936E000E39
:1002B80000017F6F000E7E6FD5EC03F0000E000189
:1002C8007F6F000E7E6F86EC03F033EC05F02CECAC
:1002D80005F09EA21FD09E9200018605040E000123
:1002E8008759D8A005D00001826D831FD8B0832B11
:1002F80000018251000186250001866F00018351AB
:10030800000187210001876F86C07EF087C07FF0DB
:10031800D5EC03F000018A51D8B4DBD7000E0001F8
:100328008A6F00018805040E00018959D8A005D0FC
:100338000001846D851FD8B0852B00018451000110
:1003480088250001886F000185510001892100017D
:10035800896F88C07EF089C07FF086EC03F0B9D73A
:1003680071C073F00001746B756B0001703500018A
:10037800733701E374810001735100017D6F00013F
:100388007D51D8A40AD0000E00016F6F000E706F67
:10039800000E716F000E726F1200170E0001736F5E
:1003A8006FC074F070C075F071C076F000017329E9
:1003B8000001776F05D00001D89076337533743318
:1003C8000001772FF8D7000174510001786F000100
:1003D800708FFF0E00016F17FF0E00017017000EDF
:1003E8000001711700016F510001796F0001705110
:1003F80000017A6F0001715100017B6F00017C6B75
:100408008E0E00017D5F00017DAF1AD000017D5185
:10041800800A8F0FD8B00AD0000E00016F6F000E4F
:10042800706F000E716F000E726F12000001D8908D
:100438007C337B337A33793300017D3FF7D71BD088
:10044800170E00017D6512D0000E00016F6F000EBF
:10045800706F000E716F000E726F12000001D8905D
:1004680079377A377B377C3700017D0700017D516A
:100478000001D8A4F3D7000178510001D8B409D0FD
:1004880000017C1F7B1F7A1F796D000E7A237B2366
:100498007C2379C06FF07AC070F07BC071F07CC0AB
:1004A80072F012002DC031F0326A336A2C343136C2
:1004B80001E332803150386E3850D8A407D0000E8E
:1004C8002B6E000E2C6E000E2D6E120030C031F017
:1004D800326A336A2F34313601E332803150396E53
:1004E8003950D8A407D0000E2B6E000E2C6E000ECB
:1004F8002D6E1200000E356E000E366E000E376E31
:100508003950890F385E2DC039F03050391A800EB5
:1005180039162C8EFF0E2B16FF0E2C16000E2D16DC
:100528002F8EFF0E2E16FF0E2F16000E3016180EE9
:10053800346ED8903536363637362E502B5C2F50E1
:100548002C5830502D58D8A007D02E502B5E2F5045
:100558002C5A30502D5A3580D8902B362C362D36C3
:10056800342EE7D735C020F036C021F037C022F04E
:1005780038C023F039C024F02FEC03F020C02BF052
:1005880021C02CF022C02DF01200000E296E27AEDB
:100598000AD0271E261E251E246C000E2522262280
:1005A8002722010E296E23AE0AD0231E221E211EE9
:1005B800206C000E212222222322010E291A000E6D
:1005C8002A6E000E2B6E000E2C6E000E2D6E24501F
:1005D800251026102710D8B42AD0010E286E06D070
:1005E800D8902436253626362736282A27AEF8D737
:1005F800D8902A362B362C362D362450205C2550A0
:1006080021582650225827502358D8A009D02450C2
:10061800205E2550215A2650225A2750235A2A80D4
:10062800D8902732263225322432282EE1D7295075
:10063800D8B408D02D1E2C1E2B1E2A6C000E2B227F
:100648002C222D222AC020F02BC021F02CC022F011
:100658002DC023F012002350D8B405D0205021100B
:100668002210D8A40CD0000E206E000E216E000EB1
:10067800226E1200232AD890223221322032000E14
:100688002014256E000E2114266EFE0E2214276EED
:10069800255026102710D8B40CD0ECD7232A010EE9
:1006A8002026000E2122000E2222D890223221324A
:1006B8002032000E2014256E000E2114266EFF0E27
:1006C8002214276E255026102710D8B406D0E6D756
:1006D8002306D89020362136223621BE03D0020EBA
:1006E8002360F6D723A0219ED890233223502212CC
:1006F8002450D8A4228E20C020F021C021F022C08E
:1007080022F01200040E00017F5DD8B01200D0EC78
:1007180004F02EC034F02FC035F0F7EC04F034C0EC
:1007280063F035C064F036C065F0C00E2E6E7F0EE3
:100738002F6E440E306E7EC028F07FC029F013EC77
:1007480005F028C02BF029C02CF02AC02DF056EC5B
:1007580002F02BC060F02CC061F02DC062F05DEC9F
:1007680000F060C06FF061C070F062C071F0B4EC6E
:1007780001F06FC07EF070C07FF0BA9A00017EA1D0
:1007880002D0BA8801D0BA987EC03AF07FC03BF058
:10079800D8903B323A32D8903B323A323A50BB6E1C
:1007A8001200040E00017F5DD8B01200D0EC04F0F6
:1007B8002EC034F02FC035F0F7EC04F034C063F0ED
:1007C80035C064F036C065F0C00E2E6E7F0E2F6EF9
:1007D800440E306E7EC028F07FC029F013EC05F07F
:1007E80028C02BF029C02CF02AC02DF056EC02F0BE
:1007F8002BC060F02CC061F02DC062F05DEC00F001
:1008080060C06FF061C070F062C071F0B4EC01F0CC
:100818006FC07EF070C07FF0BD9A00017EA102D04B
:10082800BD8801D0BD987EC03AF07FC03BF0D8901B
:100838003B323A32D8903B323A323A50BE6E1200CE
:100848000600E9CF14F0EACF15F0E1CF16F0E2CFB9
:1008580017F0D9CF18F0DACF19F0F3CF1AF0F4CF98
:100868001BF0F6CF1CF0F7CF1DF0F8CF1EF0F5CF38
:100878001FF0F2BAF2A408D0FC0ED76EF30ED66EB3
:10088800F294010E00018A6F1FC0F5FF1EC0F8FF29
:100898001DC0F7FF1CC0F6FF1BC0F4FF1AC0F3FF12
:1008A80019C0DAFF18C0D9FF17C0E2FF16C0E1FF70
:1008B80015C0EAFF14C0E9FF13C0FBFF12C0FAFF1E
:1008C80040921100000E206E240E216EF40E226E4E
:1008D800000E236E2EC032F02FC033F030C034F03B
:1008E80031C035F0020ED8903236333634363536CC
:1008F800E82EF9D7020ED8903236333634363536EC
:10090800E82EF9D732C024F033C025F034C026F0E1
:1009180035C027F0C9EC02F02004CB6E2EC03CF0A5
:100928002FC03DF030C03EF031C03FF01200000E45
:10093800206E240E216EF40E226E000E236E2EC041
:1009480032F02FC033F030C034F031C035F0020E31
:10095800D8903236333634363536E82EF9D7020E8B
:10096800D8903236333634363536E82EF9D732C099
:1009780024F033C025F034C026F035C027F0C9EC88
:1009880002F02004CB6E2EC03CF02FC03DF030C0EA
:100998003EF031C03FF01200000E206E240E216E92
:1009A800F40E226E000E236E3CC030F03DC031F0D4
:1009B8003EC032F03FC033F0020ED89030363136A8
:1009C80032363336E82EF9D730C024F031C025F05E
:1009D80032C026F033C027F0C9EC02F020C02EF058
:1009E80021C02FF01200000E376E35AE06D0346CE1
:1009F800351ED8B0352A010E376E34C020F035C008
:100A080021F0226A8E0E236E37C024F02FEC03F0FB
:100A180020C034F021C035F022C036F0120028C0C2
:100A280020F029C021F0226A8E0E236E000E246E5B
:100A38002FEC03F020C028F021C029F022C02AF0B2
:100A4800120000018A6B4090409200010CEF01F007
:100A5800BA86BA84CA80CA92CA8494921200BD86A1
:080A6800BD84CA8494941200BD
:020000040020DA
:08000000FFFFFFFFFFFFFFFF00
:020000040030CA
:0E000000000C0D1EFF8181FF0FC00FE00F40AE
:00000001FF
