:04000000A3EF05F075
:100800000000000000000000000081FF9191916E47
:10081000000081FF9191B9C300101010000081FF0A
:100820009190B8C00081FF9198946301000081FF0E
:1008300081000081FF9191B9C30081FF611886FF9B
:10084000800081FF818181423C00000000000000A7
:10085000000000000000000000FEFDFBF7EFDFBF1E
:100860007F000F0EC16E070EB46E8C68000E956E81
:100870008A68000E936E000E096E000E086E000E60
:100880000A6E000E0B6E000E026E640E016E89EC95
:1008900005F08A680A500BC006F0076A0626000EAB
:1008A0000722010E0624F66E080E0720F76E0800D8
:1008B000F550FF0A6AEC05F00C6E53D00CC08CFFAB
:1008C000FF0E06EC05F073D08C680C5006EC05F0BA
:1008D0006ED00CC08CFF0C5006EC05F068D00C50AC
:1008E000FF0A8C6EFF0E06EC05F061D0000E8C6ED8
:1008F0000C5006EC05F05BD00C50FF0A8C6E0C50CF
:1009000006EC05F054D0000E8C6E0C50FF0A06EC7D
:1009100005F04DD00C50FF0A8C6E0C50FF0A06EC0F
:1009200005F045D00C50FF0A8C6E000E06EC05F069
:100930003ED00CC08CFF0C50FF0A06EC05F037D0FF
:100940000CC08CFF000E06EC05F031D08C680C500A
:10095000FF0A06EC05F02BD08C68FF0E06EC05F0C4
:1009600026D00950000AD8B4A9D7010AD8B4ACD708
:10097000030AD8B4AED7010AD8B4B1D7070AD8B49D
:10098000B5D7010AD8B4B8D7030AD8B4BCD7010A7E
:10099000D8B4C0D70F0AD8B4C5D7010AD8B4C9D7BC
:1009A000030AD8B4CDD7010AD8B4D0D7D5D70B50C5
:1009B000010D590EF324F66E080EF420F76E0800B0
:1009C000F5CF8AFF0B2A070E0B6402D0000E0B6EC8
:1009D000082A0804066E310E066411D0000E086E57
:1009E0000A2A0A04066E4E0E066409D0000E0A6E2C
:1009F000092A0C0E0918D8A402D0000E096E000EA8
:100A0000026E010E016E89EC05F043D7036E03A060
:100A100002D0898001D0899003C001F0D8900132C2
:100A20000130D8A002D0898201D0899203C001F0A0
:100A3000D8900132D89001320130D8A002D08984F8
:100A400001D0899403C001F0D8900132D8900132CE
:100A5000D89001320130D8A002D0898601D0899681
:100A600003C001F0013A0F0E01160130D8A002D0E8
:100A7000898A01D0899A03C001F0050E026ED890D0
:100A80000132022EFCD70130D8A002D08D8001D0D7
:100A90008D9003C001F0060E026ED8900132022E36
:100AA000FCD70130D8A002D08D8201D08D92016A8E
:100AB00003AE01D0012A0130D8A002D08D8401D02C
:100AC0008D949290929292949296929A96909692F7
:100AD00096941200036E000E056E000E046E070E53
:100AE000046401D014D004C001F003C002F0012A54
:100AF00002D0D8900232012EFCD702A003D0D880B9
:100B0000053603D005500524056E042AE8D70550A4
:100B10001200000E056E000E046E0AD0060E036E63
:100B20002B0EE82EFED7032EFCD700F0044A052A30
:100B30000150045C0550800A036E0250800A03587D
:100B4000D8B01200EBD7000EF86E000131EF04F0C0
:020000040020DA
:08000000FFFFFFFFFFFFFFFF00
:020000040030CA
:0E000000000C0D1EFF8181FF0FC00FE00F40AE
:00000001FF
