:0400000030EF05F0E8
:10080000003F065B4F666D7D077F6F00000E136E25
:10081000000E126E000ED36E0F0EC16E000E926EA1
:10082000000E0D6E000EB7EC04F0102AFA0E1064E4
:10083000FCD7000E106E112AC80E11640ED0000EE7
:10084000116E124A132A100E125C270E1358D8A0EC
:1008500004D0000E136E000E126E000E0D6E000E10
:10086000B7EC04F0142A030E146473D0000E146E57
:1008700070D014C00DF012C006F013C007F0030EC4
:10088000096EE80E086EE6EC04F0010E0624F66E22
:10089000080E0720F76E0800F550B7EC04F0C5D736
:1008A00014C00DF0030E046EE80E036E12C001F0CA
:1008B00013C002F00FEC05F001C006F002C007F013
:1008C000000E096E640E086EE6EC04F0010E0624BC
:1008D000F66E080E0720F76E0800F550B7EC04F02E
:1008E000A4D714C00DF0000E046E640E036E12C087
:1008F00001F013C002F00FEC05F001C006F002C0D9
:1009000007F0000E096E0A0E086EE6EC04F0010E08
:100910000624F66E080E0720F76E0800F550B7ECB7
:1009200004F083D714C00DF012C001F013C002F020
:10093000000E046E0A0E036E0FEC05F0010E01248A
:10094000F66E080E0220F76E0800F550B7EC04F0C2
:100950006CD71450000AD8B48CD7010AD8B4A0D7E9
:10096000030AD8B4BED7010AD8B4DCD75ED70E6E5E
:100970008094000E0F6E070E0F6401D00ED00EAEE5
:1009800002D0808A01D0809A0E500E240E6E80967E
:100990000400040080860F2AEED7000E0F6E070EAB
:1009A0000F6401D00ED00DAE02D0808A01D0809AA3
:1009B0000D500D240D6E80960400040080860F2AD1
:1009C000EED7808400F000F080941200000E0B6ED1
:1009D000000E0A6E08500910D8B41CD0010E0C6E1F
:1009E00004D0D890083609360C2A09AEFAD7D89028
:1009F0000A360B360850065C09500758D8A005D0B7
:100A00000850065E0950075A0A80D8900932083209
:100A10000C2EEDD70AC006F00BC007F012000350F1
:100A20000410D8B418D0010E056E04D0D890033647
:100A30000436052A04AEFAD70350015C045002586C
:100A4000D8A004D00350015E0450025AD89004325A
:100A50000332052EF1D701C001F002C002F01200EE
:0A0A6000000EF86E000106EF04F02E
:020000040020DA
:08000000FFFFFFFFFFFFFFFF00
:020000040030CA
:0E000000000C0D1EFF8181FF0FC00FE00F40AE
:00000001FF
