:040000000BEF00F012
:100008004082FACF01F0FBCF02F009ED06F0ACEF29
:0200180006F0F0
:10080000004D7920436C6F636B003A0000008B94BD
:100810009494000E8C6E000E956ED59CD59AD5984A
:10082000D596D580D582D584D768D90ED66EF29468
:10083000F28AF28CF28ED58E0CEC05F0000E186E5A
:10084000000E7CEC07F0010E186E080E196E10EC0D
:1008500007F0010E186E030E7CEC07F00A0E186EFE
:10086000080E196E10EC07F0010E186E060E7CECE7
:1008700007F00A0E186E080E196E10EC07F082A031
:1008800002D0010E01D0000E1F6E206A32501F18D8
:1008900004E133502018D8B406D02CC028F02DC065
:1008A00029F02A6A2B6A28C01FF029C020F02AC02C
:1008B00021F02BC022F01F1E201E211E221E1F2AE7
:1008C000000E2022212222222C501F24236E2D5084
:1008D0002020246E000E2120256E000E2220266E80
:1008E0002350395C24503A5825503B583C50800ADC
:1008F000276E2650800A2758D8B021D082A002D077
:10090000010E01D0000E1F6E206A2E501F1804E148
:100910002F502018D8B413D082A002D0010E01D0DD
:10092000000E2E6E2F6A2E042F10D8A404D0000EB5
:100930003E6E010E03D0000E3E6E000E3D6E82A094
:1009400002D0010E01D0000E326E336A3850D8B496
:1009500004D0000E386E2C4A2D2A2D5004E10B0EC7
:100960002C5CD8A006D0000E2D6E000E2C6E364AE0
:10097000372A375004E13C0E365CD8A006D0000E72
:10098000376E000E366E344A352A355007E13B0E7D
:10099000345CD8A082B002D0344A352A355004E104
:1009A0003C0E345CD8A006D0000E356E000E346EBE
:1009B000304A312A315004E1180E305CD8A004D0FE
:1009C000000E316E000E306E010E186E010E7CECC2
:1009D00007F030C01BF031C01CF0020E1D6E95EC0C
:1009E00005F0010E186E040E7CEC07F034C01BF00D
:1009F00035C01CF0020E1D6E95EC05F0010E186E50
:100A0000070E7CEC07F036C01BF037C01CF0020E5E
:100A10001D6E95EC05F033D725EC07F0819A81988F
:100A2000030E49EC06F0670E0F6E060E106E000EF8
:100A3000116E000E126EF0EC06F0030E49EC06F09B
:100A4000280E0F6E000E106E000E116E000E126E4C
:100A5000F0EC06F0030E49EC06F0280E0F6E000EC7
:100A6000106E000E116E000E126EF0EC06F0020E0B
:100A700049EC06F0280E0F6E000E106E000E116E7F
:100A8000000E126EF0EC06F0020E49EC06F0080EB5
:100A900049EC06F00E0E0F6E000E106E000E116E79
:100AA000000E126EF0EC06F0000E49EC06F0080E97
:100AB00049EC06F00E0E0F6E000E106E000E116E59
:100AC000000E126EF0EC06F0000E49EC06F0010E7E
:100AD00049EC06F0600E0F6E020E106E000E116EE5
:100AE000000E126EF0EC06F0000E49EC06F0060E59
:100AF00049EC06F00E0E0F6E000E106E000E116E19
:100B0000000E126EF0EC06F0000E49EC06F00C0E32
:100B100049EC06F00E0E0F6E000E106E000E116EF8
:100B2000000E126EF0EC06F01200010E3F6E65D062
:100B3000270E126E100E116E1BC00FF01CC010F0AD
:100B4000CFEC06F00FC014F010C015F0030E176EB6
:100B5000E80E166E83EC06F014505CEC07F01E6E87
:100B60001E504AEC07F0030E126EE80E116E1BC009
:100B70000FF01CC010F0CFEC06F00FC014F010C046
:100B800015F0000E176E640E166E83EC06F014500E
:100B90005CEC07F01E6E1E504AEC07F0000E126E61
:100BA000640E116E1BC00FF01CC010F0CFEC06F0ED
:100BB0000FC014F010C015F0000E176E0A0E166E5E
:100BC00083EC06F014505CEC07F01E6E1E504AECED
:100BD00007F0000E3F6E1BC00FF01CC010F0000E9F
:100BE000126E0A0E116ECFEC06F00F505CEC07F09F
:100BF0001E6E1E504AEC07F012001D50010AD8B4B8
:100C0000E8D7030AD8B4CAD7010AD8B4ACD7070AC0
:100C10008FD70600E9CF03F0EACF04F0E1CF05F06B
:100C2000E2CF06F0D9CF07F0DACF08F0F3CF09F022
:100C3000F4CF0AF0F6CF0BF0F7CF0CF0F8CF0DF0B1
:100C4000F5CF0EF0F2BAF2A406D0D768D90ED66E60
:100C5000F294010E386E0EC0F5FF0DC0F8FF0CC007
:100C6000F7FF0BC0F6FF0AC0F4FF09C0F3FF08C08E
:100C7000DAFF07C0D9FF06C0E2FF05C0E1FF04C0EC
:100C8000EAFF03C0E9FF02C0FBFF01C0FAFF409288
:100C90001100156E000E0F6E000E106E000E116E1C
:100CA000000E126EF0EC06F0839E839C839A83986C
:100CB00015500F0B166E16B6838E15500F0B166E51
:100CC00016B4838C15500F0B166E16B2838A15500E
:100CD0000F0B166E16B083888186000E0F6E000E05
:100CE000106E000E116E000E126EF0EC06F0819682
:100CF000000E0F6E000E106E000E116E000E126EC2
:100D0000F0EC06F01200000E196E000E186E165070
:100D10001710D8B41CD0010E1A6E04D0D890163615
:100D200017361A2A17AEFAD7D89018361936165031
:100D3000145C17501558D8A005D01650145E1750E3
:100D4000155A1880D890173216321A2EEDD718C0BF
:100D500014F019C015F0120000EE60F0200EEE6ADB
:100D6000E806FDE100EE28F0110EEE6AE806FDE16E
:100D70000A0EF66E0F0EF76E000EF86E00EE39F0EA
:100D800010EE07F00900F5CFEEFFE550E150FAE173
:100D900040904092000EF86E000107EF04F01150F1
:100DA0001210D8B418D0010E136E04D0D89011369A
:100DB0001236132A12AEFAD711500F5C1250105887
:100DC000D8A004D011500F5E1250105AD890123291
:100DD0001132132EF1D70FC00FF010C010F0120017
:100DE000000E146E000E136E0CD0000E146E640E06
:100DF000136E1306D8A014061328FBE11428D8A4F8
:100E0000F8D70F06000E105A115A125A0F28EDE1AA
:100E10001028EBE11128E9E11228D8B41200E5D737
:100E20000AD018C0F6FF19C0F7FF0800F5504AECC9
:100E300007F0184A192A18C0F6FF19C0F7FF080072
:100E4000F5500009D8B41200ECD7C150F00B0D09D1
:100E5000C16E939A939893969598959A959C959E22
:100E6000819A81988196839E839C839A83981200AD
:100E7000176E6DEC07F00009D8A4FBD7819A819812
:100E800017380F0B0F0B49EC06F017500F0B49ECFE
:100E900006F01200176E6DEC07F00009D8A4FBD71E
:100EA000818A819817380F0B0F0B49EC06F0175009
:100EB0000F0B49EC06F012000F6E0F50D8A407D0AC
:100EC0003F04D8A402D0200E1200300E1200000EF3
:100ED0003F6E300E0F260F501200000E106E000EE7
:100EE0000F6EE80E0F5C030E1058D8B003D00F4AF7
:100EF000102AF7D7000E1200196E1850400DF3504B
:100F00001924800F38EC07F01200320000000100B5
:020F10000100DE
:020000040020DA
:08000000FFFFFFFFFFFFFFFF00
:020000040030CA
:0E000000000C0D1EFF8181FF0FC00FE00F40AE
:00000001FF
