:040000000BEF00F012
:100008002882FACF01F0FBCF02F027ED01F007EFCD
:1000180002F0000ED36E0F0EC16EC70E936E000E67
:10002800956EFB0E946E77EC01F031EC02F01E50E9
:100038001F10D8A422D020502110D8B41ED0000EF2
:100048001F6E3B0E1E6E2006D8A0210620C020F091
:1000580021C021F020502110D8A40FD02250231005
:10006800D8B40BD0000E216E3B0E206E2206D8A00D
:10007800230622C022F023C023F0000E1B6E0A0EB6
:100088001C6E000E48EC02F0000E1B6E4D0E1C6E2E
:10009800040E48EC02F0000E1B6E790E1C6E050E65
:1000A80048EC02F0000E1B6E430E1C6E070E48EC67
:1000B80002F0000E1B6E6C0E1C6E080E48EC02F06F
:1000C800000E1B6E6F0E1C6E090E48EC02F0000E3F
:1000D8001B6E630E1C6E0A0E48EC02F0000E1B6EBF
:1000E8006B0E1C6E0B0E48EC02F0000E1B6E0A0E17
:1000F8001C6E0F0E48EC02F0010E1B6E0A0E1C6EF1
:10010800000E48EC02F0010E1B6E000E126E3C0E43
:10011800116E22C00FF023C010F0CBEC01F00FC01D
:1001280014F010C015F0000E176E0A0E166EA2EC31
:1001380001F01450300F1C6E040E48EC02F0010E52
:100148001B6E22C00FF023C010F0000E126E0A0EB4
:10015800116ECBEC01F00F50300F1C6E050E48EC01
:1001680002F0010E1B6E3A0E1C6E060E48EC02F0F1
:10017800010E1B6E000E126E3C0E116E20C00FF0A9
:1001880021C010F0CBEC01F00FC014F010C015F036
:10019800000E176E0A0E166EA2EC01F01450300F06
:1001A8001C6E070E48EC02F0010E1B6E20C00FF00B
:1001B80021C010F0000E126E0A0E116ECBEC01F089
:1001C8000F50300F1C6E080E48EC02F0010E1B6E2B
:1001D8003A0E1C6E090E48EC02F0010E1B6E000E62
:1001E800126E3C0E116E1EC00FF01FC010F0CBEC4B
:1001F80001F00FC014F010C015F0000E176E0A0EB3
:10020800166EA2EC01F01450300F1C6E0A0E48EC6A
:1002180002F0010E1B6E1EC00FF01FC010F0000E82
:10022800126E0A0E116ECBEC01F00F50300F1C6EDF
:100238000B0E48EC02F0010E1B6E0A0E1C6E0F0E20
:1002480048EC02F01AD70600E9CF03F0EACF04F031
:10025800E1CF05F0E2CF06F0D9CF07F0DACF08F00A
:10026800F3CF09F0F4CF0AF0F6CF0BF0F7CF0CF08C
:10027800F8CF0DF0F5CF0EF09EA017D0CF68130E73
:10028800CE6E9E90264A272AA10E265C0F0E27586E
:10029800D8A00BD0000E276E000E266E1E06D8A022
:1002A8001F061EC01EF01FC01FF00EC0F5FF0DC0B8
:1002B800F8FF0CC0F7FF0BC0F6FF0AC0F4FF09C037
:1002C800F3FF08C0DAFF07C0D9FF06C0E2FF05C088
:1002D800E1FF04C0EAFF03C0E9FF02C0FBFF01C061
:1002E800FAFF28921100000E106E960E0F6EECECBD
:1002F80001F0380E52EC02F0000E106E320E0F6E46
:10030800ECEC01F0380E52EC02F0000E106E320EDA
:100318000F6EECEC01F0380E52EC02F0380E64EC83
:1003280002F0080E64EC02F0010E64EC02F0060E16
:1003380064EC02F00C0E64EC02F01200000E196E70
:10034800000E186E16501710D8B41CD0010E1A6E75
:1003580004D0D890163617361A2A17AEFAD7D8907E
:10036800183619361650145C17501558D8A005D0F1
:100378001650145E1750155A1880D8901732163236
:100388001A2EEDD718C014F019C015F0120011502C
:100398001210D8B418D0010E136E04D0D8901136AC
:1003A8001236132A12AEFAD711500F5C1250105899
:1003B800D8A004D011500F5E1250105AD8901232A3
:1003C8001132132EF1D70FC00FF010C010F0120029
:1003D800000E126E000E116E0FD0000E146E000E7D
:1003E800136E145007E10A0E135CD8B003D0134AF9
:1003F800142AF7D7114A122A0F50115C10501258BC
:10040800D8B01200EAD7276A266AD60EF66E040E0E
:10041800F76E000EF86E00EE1EF010EE08F0090000
:10042800F5CFEEFFE550E150FAE12890289200015F
:100438000DEF00F0126E0F0E1216010E111611506C
:10044800D8A405D01250800964EC02F012001250B2
:10045800400F800964EC02F01200010ECD6E9E90F0
:100468009D80CF68130ECE6E000E9E6EF28CF28EBB
:1004780012000F6E5BEC02F0818A81980FC083FF37
:10048800818600F0819612001D6E1BC011F01D5070
:100498001EEC02F01C503DEC02F012000F6E819A27
:1004A80081980FC083FF818600F081961200958E97
:1004B800819A8188818683BEFED78196959E120097
:1004C800106E5BEC02F0105052EC02F012003B0090
:0604D8003B001700100EAE
:020000040020DA
:08000000FFFFFFFFFFFFFFFF00
:020000040030CA
:0E000000000C0D1EFF8181FF0FC00FE00F40AE
:00000001FF
