:0400000097EF04F082
:10080000000102040810204080C0E0F0F8FCFEFF68
:10081000FEFCF8F0E0C080804020100804020102D5
:100820000408102040804020100804020103060C38
:10083000183060C00001051555575F7FFF00AA55AD
:10084000003F065B4F666D7D077F6F00000ED36E25
:100850000F0EC16E000E926E000E016E000E68EC5F
:1008600004F0000E076E07C006F006C004F0056A2B
:10087000044A052A110E045C270E0558D8A0F8D7A3
:10088000000E056E000E046E062A3F0E066408D0A8
:10089000000E066E072A090E076402D0000E076ECE
:1008A0000750010D410EF324F66E080EF420F76E8A
:1008B0000800F5CF01F00650010D010EF324F66E8D
:1008C000080EF420F76E0800F55068EC04F0D0D75D
:1008D000026E8094000E036E070E036401D00ED0EA
:1008E00002AE02D0808A01D0809A02500224026EA9
:1008F0008096040004008086032AEED7000E036E63
:10090000070E036401D00ED001AE02D0808A01D060
:10091000809A01500124016E8096040004008086B4
:10092000032AEED7808400F000F080941200000EBD
:0C093000F86E080EF76E000126EF04F0D0
:020000040020DA
:08000000FFFFFFFFFFFFFFFF00
:020000040030CA
:0E000000000C0D1EFF8181FF0FC00FE00F40AE
:00000001FF
