:0400000095EF04F084
:1008000000FFFEFDFBF7EFDFBF7F0000000E036E71
:10081000000E026E000E016E000ED36E0F0EC16E42
:10082000000E956E000E836E000E936E000E816EAC
:100830006ED0000E056E000E046E400E045C9C0E21
:100840000558D8B003D0044A052AF7D7032A070E63
:10085000036451D0000E036E010E026E4CD081680D
:1008600056D0000E056E000E046E400E045C9C0E09
:100870000558D8B003D0044A052AF7D7032A070E33
:1008800003641AD0080E036E020E026E15D0836840
:100890003ED0000E056E000E046E400E045C9C0EF1
:1008A0000558D8B003D0044A052AF7D7032E04D040
:1008B000080E036E030EE9D70350010D010EF32459
:1008C000F66E080EF420F76E0800F5CF81FFDFD733
:1008D000000E056E000E046E400E045C9C0E055862
:1008E000D8B003D0044A052AF7D7032E04D0000E4F
:1008F000036E000EB2D70350010D010EF324F66E05
:10090000080EF420F76E0800F5CF83FFA8D7025039
:10091000000AD8B48ED7010AD8B4A3D7030AD8B432
:10092000B8D7010AD8B4D4D7F2D7000EF86E0001B8
:0409300006EF04F0DA
:020000040020DA
:08000000FFFFFFFFFFFFFFFF00
:020000040030CA
:0E000000000C0D1EFF8181FF0FC00FE00F40AE
:00000001FF
