:0400000070EF05F0A8
:1008000000000100020001000300010002000100DD
:100810000446310046320046330043520030003473
:1008200000350036003700380039004100420043EF
:1008300000440045004600000F0EC16E070EB46E66
:100840008A908A928A94939093929394000E8C6EDD
:10085000000E956E000E356E0F0E346E87EC05F0AF
:100860008A908A92380E8C6E8A8400D000D08A9446
:10087000000E356E050E346E87EC05F08A908A9274
:10088000380E8C6E8A8400D000D08A94850EE82EB3
:10089000FED700F08A908A92380E8C6E8A8400D03F
:1008A00000D08A94380EAEEC05F00E0EAEEC05F0DA
:1008B000010EAEEC05F0030EAEEC05F0000E356E49
:1008C000020E346E87EC05F0800EAEEC05F0290EBA
:1008D0003D6E000E3E6E09D03DC0D9FF3EC0DAFF2E
:1008E000DF509DEC05F03D4A3E2A3DC0D9FF3EC099
:1008F000DAFFDF50D8A4F0D7C00EAEEC05F0FE0E44
:10090000F3EC04F0FE0E3C6E000E426E000E416EE3
:10091000040E426401D010D02EEC05F00F0AD8B4BA
:1009200003D0010E416E08D0D8903C363C803C503C
:10093000F3EC04F0422AECD74104D8A40DD0000E09
:10094000356E140E346E87EC05F02EEC05F00F0AB0
:10095000D8A402D0000E416E4150D8B4D0D72EECAE
:1009600005F0396E3950010D010EF324F66E080EB4
:10097000F420F76E0800F5CF3AF04250040DF35022
:100980003A243B6E2EEC05F00F0AD8A4FBD7000EDC
:10099000356E140E346E87EC05F02EEC05F00F0A60
:1009A000D8A4F0D73B50020D010EF324D96E000EEF
:1009B000F420DA6EDECF3FF0DDCF40F00AD03FC04A
:1009C000F6FF40C0F7FF0800F5509DEC05F03F4AE8
:1009D000402A3FC0F6FF40C0F7FF0800F55000096D
:1009E000D8B48DD7ECD7356E35A002D08A8601D029
:1009F0008A9635C034F0D89034323430D8A002D042
:100A00008A8801D08A9835C034F0D8903432D89092
:100A100034323430D8A002D08A8A01D08A9A35C0C4
:100A200034F0D8903432D8903432D89034323430D4
:100A3000D8A002D08A8C01D08A9C35C034F0343AD8
:100A40000F0E34163430D8A002D08A8E01D08A9E80
:100A500093969398939A939C939E1200000E356EF2
:100A6000928092829284928680A603D0346A342A3D
:100A700001D0346A3430353680A403D0346A342A45
:100A800001D0346A3430353680A203D0346A342A37
:100A900001D0346A3430353680A003D0346A342A29
:100AA00001D0346A34303536355012001D08120832
:100AB000150818081F0821082308250827082908F1
:100AC0002B082D082F0831083308350811081408A1
:100AD00017081A0848656C6C6F576F726C640000D9
:100AE000AC0EF66E0A0EF76E000EF86E00EE01F018
:100AF00010EE33F00900F5CFEEFFE550E150FAE1DA
:100B0000000EF86E080EF76E00011CEF04F0000EE8
:100B1000386E000E376E0AD0060E366E2B0EE82E9B
:100B2000FED7362EFCD700F0374A382A3450375CCF
:100B300035503858D8B01200EFD7356E35C08CFF1D
:100B4000000E956E00D000D08A808A928A8400D0F0
:100B500000D08A948A82BFEC05F01200356E35C051
:100B60008CFF000E956E00D000D08A908A928A8405
:100B700000D000D08A948A82BFEC05F012009568FC
:100B8000836800D000D08A908A828A8400D000D006
:0C0B900083CF34F08A9434AE1200F5D705
:020000040020DA
:08000000FFFFFFFFFFFFFFFF00
:020000040030CA
:0E000000000C0D1EFF8181FF0FC00FE00F40AE
:00000001FF
